:10000000C00A0020291200003FEE01003FEE01006F
:10001000A5FF01003FEE01003FEE01003FEE0100B1
:100020003FEE01003FEE01003FEE01003FEE010018
:100030003FEE01009CA20200C1EC01003FEE010076
:100040003FEE01003FEE01003FEE01003FEE0100F8
:100050003FEE01003FEE01003FEE01001104000001
:100060003FEE01003FEE01003FEE01003FEE0100D8
:100070007D5A00003FEE01003FEE0100C10C000080
:1000800075ED01003FEE01003FEE01003FEE010083
:100090003FEE0100591900003FEE01003FEE010064
:1000A0003FEE01003FEE01003FEE01003FEE010098
:1000B0003FEE010031C501003FEE01008DCF010090
:1000C0009D8C0200998C02007DC70100A98C020062
:1000D000A18C020065CF0100A58C0200CDCF0100EC
:1000E00065A8010029AA01003DD001003FEE0100F2
:1000F0003FEE01003FEE01003FEE01003FEE010048
:100100003FEE01003FEE01003FEE01003FEE010037
:100110003FEE01003FEE01003FEE01003FEE010027
:100120003FEE01003FEE01003FEE01003FEE010017
:100130003FEE01003FEE01003FEE01003FEE010007
:10014000002370B5404C05468AB0E36318B10088BF
:1001500023600BF0C9FD3D4828F04BF83C4E3D4B69
:10016000304633603C4B736023F03DFD0021304648
:1001700016F06AFA32A3D3E90023A062C4E9062389
:1001800023F03CFDD4E9062319431043C4E90601DA
:10019000CDE900014FF0FF334FF0FF32A06A28F0A5
:1001A000A3F802224FF0FF31A06A28F0A2F8012044
:1001B0000BF01CFB4FF4007300222849A06A28F0C2
:1001C000ECF8B0F5007F38D100239422CDE9073355
:1001D00009933C23CDE9033205939623A06A03A932
:1001E000069316F04FFB35B3287C0BF035FF054620
:1001F000F0B9A06A28F0B2F90BF0DCFE0BF0D8FAE7
:1002000020B14FF48070002108F062FA0BF0E0FAA0
:1002100020B14FF40060002108F05AFA23F0B2FD3B
:10022000012016F065FA0E4A0E49A06A23F0D9FCA7
:1002300028460AB070BDFF20D7E70725F8E700BFC2
:100240000DD5015520000000300F0020690345EC5A
:100250001021002071B6000020210020101F002076
:100260008B3B0200CB3B02000348044B834202D08D
:10027000034B03B118477047BC0E0020BC0E002092
:1002800000000000064B0749C91A891048BF013118
:10029000491003D0044B0BB101481847704700BF09
:1002A000BC0E0020BC0E00200000000010B5064C63
:1002B000237843B9FFF7D8FF044B13B10448AFF3D9
:1002C00000800123237010BDEA28002000000000F8
:1002D00068EC020008B5054B1BB105490548AFF3B2
:1002E0000080BDE80840FFF7CDBF00BF0000000060
:1002F0009011002068EC0200A3F5803A704700BF1F
:10030000174B002B08BF134B9D46FFF7F5FF00214D
:100310008B460F461348144A121A28F0A8FD0E4BBC
:10032000002B00D098470D4B002B00D098470020A1
:10033000002104000D000D48002802D00C48AFF346
:1003400000801DF04BFB200029001EF0AFFC1DF0CB
:1003500091F800BF0000080000000000000000004D
:10036000C00A0020BC0E0020242A0020000000004B
:10037000000000007FB510221A4D0021684628F0C9
:1003800076FD0121242001F017FD694628461EF064
:10039000F0FE24201EF0DCFDBDF80230124E0133C9
:1003A000B0FBF3F41EF0EFFC1EF0EEFC22460F490A
:1003B00030681FF03FFC0E4BB4FBF3F41EF0E3FC7F
:1003C0001EF0E2FC22460B4930681FF033FC2B6B19
:1003D000EC61AB6943F00103AB618022064B1A600C
:1003E00004B070BD0080045068120020009E02001E
:1003F000A08601000F9E020000E100E0034B596956
:1004000003F5005251610122DA6070470080045008
:10041000044B5A6903F500535A610122024B1A70CA
:10042000704700BF00800450EB28002007B503464A
:100430000521074A68461DF03DFA684628F02FFD61
:100440006A46411C1B200EF029FD03B05DF804FB39
:10045000209E02002DE9F047354E1EF094FC1EF060
:1004600093FC344930681FF0E5FB0222324B334FD6
:100470001A643946C8201EF0F9FB314B314C1A641E
:100480001EF081FC1EF080FC2F4930681FF0D2FB6B
:1004900000213B78626C12F004022FD001B13B7056
:1004A0004FF00009294DDFF89CA0DFF8B480C5F8B3
:1004B0000090DAF8444014F0040428D11EF063FCE4
:1004C0001EF062FC224930681FF0B4FB40F2571264
:1004D0002B68204F53434FF47A72B3FBF2F33B6027
:1004E0001EF051FC1EF050FC3A681B4930681FF0AA
:1004F000A1FB1A4B2C601C70BDE8F087002BC9D003
:10050000124801680131016019461346C2E73B7881
:1005100023B12B6887F8009001332B601EF033FC69
:100520001EF032FC414630681FF084FBC1E700BF7B
:1005300068120020259E020000D00350EB28002006
:1005400000E0035000C003502C9E0200AC110020BC
:100550003B9E0200A81100204D9E0200EC280020C6
:100560003A9E02000368AE4A23F47F4323F0070358
:10057000934273B500F0B28002F10172934200F031
:100580000281A84A934240F06F81A74E30460EF098
:10059000E3FB054610B3A54CA54920681FF04AFBB4
:1005A000A44920681FF046FB1EF0EDFB1EF0ECFB9B
:1005B000A14BA24A0093A249922320681FF03AFB64
:1005C000A0492B46A04A20681FF034FB284600F0C3
:1005D000DBFC9E4920681FF02DFBFEE702213078EE
:1005E0000EF0F4FB044610B3904D914928681FF0BB
:1005F00021FB904928681FF01DFB1EF0C4FB1EF074
:10060000C3FB8D4B8D4A00938D49972328681FF0BB
:1006100011FB8C4923468C4A28681FF00BFB2046AF
:1006200000F0B2FC894928681FF004FBFEE7A02215
:1006300000900346114630780EF0A6FB054610B335
:100640007A4C7B4920681FF0F5FA7A4920681FF040
:10065000F1FA1EF098FB1EF097FB774B774A009358
:100660007749A02320681FF0E5FA76492B46764AA1
:1006700020681FF0DFFA284600F086FC73492068E6
:100680001FF0D8FAFEE7022130780EF0B3FB0546E2
:10069000002800F09080654C654920681FF0CAFA78
:1006A000644920681FF0C6FA1EF06DFB1EF06CFB5B
:1006B000614B624A00936249A42320681FF0BAFA92
:1006C00060492B46604A20681FF0B4FA284600F0C3
:1006D0005BFC5E4920681FF0ADFAFEE7524C022138
:1006E00020780EF073FB054610B3504C504920683B
:1006F0001FF0A0FA4F4920681FF09CFA1EF043FB40
:100700001EF042FB4C4B4D4A00934D49B6232068E6
:100710001FF090FA4B492B464B4A20681FF08AFA8B
:10072000284600F031FC494920681FF083FAFEE7B3
:10073000022120780EF05EFB0546002800F0948030
:100740003A4C3B4920681FF075FA3A4920681FF07F
:1007500071FA1EF018FB1EF017FB374B374A009357
:100760003749BB2320681FF065FA36492B46364AC5
:1007700020681FF05FFA284600F006FC3349206825
:100780001FF058FAFEE7B0F805301B2B6CD1038937
:100790000320DB0734D500F0B1FB60B1234C2C49BA
:1007A00020681FF047FA1EF0EEFA1EF0EDFA294914
:1007B00020681FF03FFA284B1868FFF737FE044601
:1007C000002851D0012000F099FB00284CD0174D93
:1007D000224928681FF02EFA1EF0D5FA1EF0D4FA2E
:1007E00018492346184A28681FF024FA204600F0CA
:1007F000CBFB1B49286802B0BDE870401FF01ABA55
:1008000000F07CFB80B3094C114920681FF012FAFC
:100810001EF0B9FA1EF0B8FA12492068EBE700BFE3
:10082000A0000601A0000100E20C002068120020D8
:10083000399E02005B9E0200D69E0200609E02006E
:10084000699E0200789E0200759E02008D9E020045
:10085000A39E0200A89E0200A81100209E9E0200F6
:100860003A9E0200BE9E020002B070BD30B5036821
:100870007C4A23F47F4323F00703934289B040F07E
:10088000EE80082200211220774B0EF0D9FA0446A0
:1008900010B3764D764928681FF0CCF97549286861
:1008A0001FF0C8F91EF06FFA1EF06EFA724B734A11
:1008B000009373493D2328681FF0BCF97149234612
:1008C000714A28681FF0B6F9204600F05DFB6F49B9
:1008D00028681FF0AFF9FEE70146032214206C4B95
:1008E0000EF0AEFA044610B3604D614928681FF05F
:1008F000A1F9604928681FF09DF91EF044FA1EF026
:1009000043FA5D4B5D4A00935D494B2328681FF015
:1009100091F95C4923465C4A28681FF08BF9204610
:1009200000F032FB594928681FF084F9FEE70146C0
:1009300005221620574B0EF083FA054610B34B4C98
:100940004B4920681FF076F94A4920681FF072F978
:100950001EF019FA1EF018FA474B484A009348490E
:10096000592320681FF066F946492B46464A2068FD
:100970001FF060F9284600F007FB444920681FF08B
:1009800059F9FEE70DF10F0104A80EF09DFA044697
:1009900010B3364D364928681FF04CF935492868A0
:1009A0001FF048F91EF0EFF91EF0EEF9324B334A12
:1009B00000933349642328681FF03CF931492346EA
:1009C000314A28681FF036F9204600F0DDFA2F4939
:1009D00028681FF02FF9FEE7BDF8143001465BBA16
:1009E000ADF818309DF8133008228DF81A30FF2327
:1009F0008DF81B30FE238DF81C309DF81230182026
:100A00008DF81D30BDF810305BBAADF81E3006AB66
:100A10000EF016FA054610B3144C154920681FF065
:100A200009F9144920681FF005F91EF0ACF91EF011
:100A3000ABF9114B114A00931149742320681FF040
:100A4000F9F810492B46104A20681FF0F3F82846A1
:100A500000F09AFA0D4920681FF0ECF8FEE709B0A3
:100A600030BD00BFA0000100E59E0200681200201A
:100A7000399E02005B9E0200209F0200EE9E020053
:100A8000699E0200789E0200759E02008D9E020003
:100A9000169F02001A9F020010B5234C01F066FA5F
:100AA00001F086FC236F23F0070343F00303236761
:100AB0001EF017FB1D4B00209B6A9B075EBF0122A7
:100AC0001B4B9A62D4F8203123F0030343F0020356
:100AD000C4F82031D4F8243123F0070343F0020393
:100AE000C4F82431D4F8403123F0030343F0020367
:100AF000C4F84031D4F8603123F0030343F002031B
:100B0000C4F86031D4F8403223F0030343F0020309
:100B1000C4F84032D4F8003223F0070343F0020354
:100B2000C4F8003210BD00BF0080005000C000506B
:100B300000E0005008B501F07DFF01280ED1144BF4
:100B400004205A6E4FF480231249520358BF124AB0
:100B50004B6601F51041086258BF536603F0EAFD89
:100B60001EF01EF903F076FD03F0CEFD03F094FDB8
:100B70001FF00FF8FFF790FF03F07CFD1EF007F960
:100B800000F00CFC00F022FFBDE8084004F012BAAF
:100B9000008000500090005000A0005030B5224D61
:100BA00095B00DAC0FCD0FC495E80700032384E882
:100BB00007008DF84D3029231C4A1D49CDE9022339
:100BC0001C4B0E22CDE904134FF4807300210DF16C
:100BD0002600069328F04BF94FF4A020164B07A9E6
:100BE000CDE907030F238DF8243010238DF825302D
:100BF000124B0DAA0A9320230B9301238DF8313059
:100C00000F4B1048009302AB03F0C2FF04469DF85F
:100C100032304FF4E130002B0CBF032100211EF0D5
:100C2000FFF8204615B030BDE0A1020000000650DC
:100C3000000500060008000724000650ED280020EB
:100C4000B011002004120020831E012B10B512D811
:100C5000012922D8114B04221B6905210020C3F36E
:100C6000401301F031FD0E4B1B681868A8B1BDE8B8
:100C70001040436A18478B1E012B0CD801280CD852
:100C8000BDE810400022054B05211B691046C3F347
:100C9000401301F019BD0129E5D910BD00C0035072
:100CA000C00A002008B50449044804F049FABDE828
:100CB0000840FFF773BF00BFC40A002028120020BD
:100CC00001481FF025B900BF04120020184B37B5AA
:100CD00083422AD1174B1B783BB3C8B20EF09EF863
:100CE000054610B3144C154920681EF0A3FF1449A3
:100CF00020681EF09FFF1EF046F81EF045F8114BCD
:100D0000114A00931149852320681EF093FF104972
:100D10002B46104A20681EF08DFF284600F034F95B
:100D20000D4920681EF086FFFEE703B030BD00BF0E
:100D3000301200200D29002068120020399E020088
:100D40005B9E020064A20200FCA10200699E0200F8
:100D5000789E0200759E02008D9E020030B500252F
:100D60000368584A23F47F4323F0070385B0934276
:100D700004460295ADF80C507ED002F580229342D5
:100D80000ED0A2F18272934240F09A804E4B1B78B3
:100D9000002B00F0958005B0BDE830401FF0DCB9B5
:100DA000B0F805301F2B40F08B80FF2304A91A46B2
:100DB00011E903001DF0E0FF012814BF41F2FC150A
:100DC000414B05F0FC0208BF18701F2120790EF07E
:100DD0004DF8054610B33D4C3D4920681EF02AFFF2
:100DE0003C4920681EF026FF1DF0CDFF1DF0CCFF12
:100DF000394B3A4A00933A49592320681EF01AFFAA
:100E000038492B46384A20681EF014FF284600F067
:100E1000BBF8364920681EF00DFFFEE7344900900C
:100E20002379344A0968344800F008F90546002857
:100E300046D0264C264920681EF0FCFE2549206835
:100E40001EF0F8FE1DF09FFF1DF09EFF224B234A6F
:100E500000932349622320681EF0ECFE21492B46B3
:100E6000214A20681EF0E6FE284600F08DF81F4952
:100E700020681EF0DFFEFEE7B0F80530B7EE047A1A
:100E800007EE903AF8EE677AB0F8073067EE877AA7
:100E9000013307EE103AB8EEC77A67EE877AB1EE03
:100EA000047A67EE877AFAFE677AFCEEE77A17EE45
:100EB000903AB3F57A7F38BF4FF47A730C4A1360D7
:100EC00005B030BDA00006020D29002068120020E8
:100ED000399E02005B9E020073A20200FCA1020088
:100EE000699E0200789E0200759E02008D9E02009F
:100EF000CC0A0020CD0C0000301200200B4B024623
:100F00001B7883B10A4B1B78834234BF0020012039
:100F1000084B1B7833B1084B1B78134113F0010FBA
:100F200008BF002070470120F2E700BFE50C002059
:100F3000E40C00200E290020E30C0020012208B55B
:100F4000074B1A700022074B1A700422064B1A70C6
:100F50001F22064B1A7003F017FC054B186008BDE2
:100F6000E50C00200E290020E40C0020E30C0020FA
:100F700068120020024B034918681EF05BBE00BFD8
:100F80006812002093A2020070B50C4C0C49064672
:100F900020681EF04FFE03F0F7FB0546206803F0C3
:100FA000E7FB3046FFF7E6FF284603F0E1FB206849
:100FB0000449BDE870401EF03DBE00BF681200202D
:100FC00095A2020097A2020038B505461EF0A5F8CA
:100FD00000230B4A14685CB1AC4206D1A96A6BB11C
:100FE00099621EF0A0F8012007E02346A46AF2E708
:100FF000002DF3D01EF097F8204638BD1160F0E7C1
:101000006C12002010B5044698B104F033FB204662
:10101000FFF7DAFF10B194F82C300BB9002010BDA7
:101020001EF07BF8044A1368013B13601EF07BF846
:10103000F4E72220F3E700BF701200202DE9F0430F
:1010400085B00546914698460E469DF8307009B920
:10105000002F5CD12846FFF7D5FF0446002836D183
:1010600085F82C00686304F0B3FB864233D904F0A2
:101070004FFB2146844640F2E7304FF47A7200235A
:10108000E6FB0C011CF05EF84FF0FF3200231CF071
:1010900059F82B46E88611462846CDE900441D4AFA
:1010A0001EF0F6FF044690B9C5E9089885F82D7042
:1010B0002E631EF032F8184A136833B31A469B6A3F
:1010C000002BFBD195620023AB621EF02CF820466A
:1010D00005B0BDE8F08347B12B4631462846CDE93F
:1010E00000440C4A04F038FBDCE7304603A904F066
:1010F00015FB04460028EAD12B462846CDE90077A7
:10110000044A03991EF0A0FFCCE71560DBE7212419
:10111000DDE700BF1D1100006C12002091F82C309B
:1011200013B50C4683B98B8ECA8E93420ED243B947
:10113000CDE9003320460B46104A4FF0FF311EF038
:1011400067FFA38E0133A38602B010BD52B191F8A0
:101150002D307BB101230093D1E908232046096B90
:10116000FFF76CFF0123064A84F82C301368013323
:101170001360E9E7084604F07DFAF3E71D1100006B
:10118000701200202DE9F041144E336823B34FF064
:101190000008134F1DF0C1FF05463C6824B92846DE
:1011A000BDE8F0411DF0BFBF94F82C3093B1336817
:1011B00084F82C80013B336094F82D3013B920461D
:1011C000FFF702FF28461DF0AEFFD4E908312046A4
:1011D0009847DFE7A46AE1E7BDE8F08170120020DC
:1011E0006C12002007B508201DF044FE02238DF884
:1011F0000030054B684601931DF0D6FD082003B072
:101200005DF804EB1DF041BE006A18100348044A63
:101210000449121A92101DF013BE00BF78F00200AC
:1012200078F00200242A002008B500F02FF8FFF71C
:10123000EDFF124B12498B4212D30020114B124981
:101240008B4218D3FFF75CF8186850F822405868B2
:1012500040F82240013298688242F5D30C33EAE725
:101260000022F8E71C6844F8220001325C68A242C0
:10127000F8D30833E4E70022F8E700BF70EC02007F
:101280007CEC02007CEC02007CEC02004FF400419C
:101290004FF0FF30124B134A10B59A60D3F88820F4
:1012A00042F47002C3F888200F4A916601F1884128
:1012B00001F5005210664FF6DF7050660220C3F849
:1012C000D000BFF34F8FBFF36F8F08244FF440332C
:1012D0000648C0F88041D36004600B6110BD00BFB8
:1012E00000ED00E0000000000090005000E100E090
:1012F000014B1868704700BFD40A0020084B1B6FD1
:1013000003F00703022B04D0032B05D0012B05D0DB
:10131000FEE7044B18687047034BFBE70348704730
:1013200000800050D40A0020DC0A0020002D31018A
:1013300008B5FFF7E3FF054B1B6FC3F3033301331E
:10134000B0FBF3F0024B186008BD00BF00800050F6
:10135000D00A00200048704700B4C404014B18684C
:10136000704700BFDC0A0020054B1860054B1B6F5F
:1013700003F00703032B01D1FFF7DABF704700BF6B
:10138000DC0A00200080005000487047002D310129
:10139000014B1868704700BFD80A002000239B6AE1
:1013A00010B5B3F5903F11D219680A4A91420DD198
:1013B000094C227812F0FD0F01D0002010BDDB692E
:1013C00098470028FAD101232370F6E74FF4817083
:1013D000F4E700BF07B0CD5E0F2900204FF00053A7
:1013E000074A1A60BFF34F8F0649074BCA6802F4D9
:1013F000E0621343CB60BFF34F8F00BFFDE700BF38
:1014000002020FF000ED00E00400FA050346054A71
:101410000549106803448B428CBF4FF0FF301360C6
:10142000704700BFE00A00200080002008B50121BD
:101430003A2000F0C1FC032101230422002001F026
:1014400043F900201DF085FE0122214B4FF460700E
:10145000C3F844241DF07CFD1E4B00F5D520D3F8C5
:10146000F02000F2FC4042F00102C3F8F020D3F873
:10147000FC2042F08072C3F8FC20174AA3F55D43BC
:101480001A60164B0222B0FBF3F0154B01381861BD
:10149000C3F8F0204FF48072C3F804234FF0604388
:1014A000104A0020C3F8B02F0F4AC3F8802ED3F89B
:1014B000002E42F48072C3F8002EFF2283F8202011
:1014C000D3F8002E22F48072C3F8002E08BD00BFAE
:1014D00000D0035000ED00E0FF030040F8590D007C
:1014E000000004E055CEACC5090001004FF0604398
:1014F000D3F8802E30B5D20715D501240B4D84408A
:10150000D5F8FC2042F08072C5F8FC20D3F8002EFC
:101510002243C3F8002E53F82020002AF0D003F80D
:101520002010002030BD1120FCE700BF00ED00E0DE
:101530002DE9F04F9A46564B85B01B7806460F466C
:101540001546DDF83C909DF844B0DDF85080002B46
:1015500000F09780072A00F296800E9B002B00F087
:101560009280B9F1000F00F08E80129BB3F5006FEE
:1015700000F38980012803D1109B002B00F08380A9
:10158000444B03EB05131B7B002B7ED0424C1022F7
:101590000021684627F06BFC04EB45141022A7BB22
:1015A0003946204627F063FC43F210036380BBF109
:1015B000000F03D1E37843F00303E370364A0E9B38
:1015C00002EB451CCCE90193129B6901581E9DF862
:1015D0004C30C0F30A0003F003039B0643EA001EED
:1015E00053582E48012E00EA03004EEA0003CDF8BE
:1015F00000A0535017D0B8F1000F2ED19CF8023044
:1016000068F304138CF8023027E00021204627F00D
:101610002EFC4FF444736380BBF1000FCED1E3780E
:1016200043F03003C9E713230CF1100ECCF80C3053
:101630009CE80F008EE80F006FF00301DCF81C201F
:10164000109B61F39F02012FCCF81C20CCF81430C2
:1016500003D1CCF81890CCF8043000270D4A2901AA
:1016600002EB051342F80180159A28465A60694634
:1016700022469F605E7301F0C5F8384605B0BDE8AC
:10168000F08F0748FAE70748F8E70748F6E700BF92
:101690001029002074130020741200200F80FFF323
:1016A000028000F0018000F0078000F038B5124B96
:1016B00005461B78DBB1E0B11DF02FFD0F4A00237A
:1016C0001146147B54B92B6001251A0101EB031359
:1016D0001D738C501DF027FD204638BD0133082BAB
:1016E00002F11002EDD11DF01EFD0548F5E7054899
:1016F000F3E70548F1E700BF10290020741300202C
:10170000048000F0028000F0018000F038B51DF088
:1017100004FD002305460B4A147B6CB90133082BEA
:1017200002F11002F8D101F00FF8074B28461C70A7
:101730001DF0F9FC204603E028461DF0F4FC0348A8
:1017400038BD00BF7413002010290020058000F070
:101750000D4B10B51B78044693B1072812D81DF025
:10176000DCFC0A4B03EB04131A7B2AB100241C7324
:101770001DF0D9FC204610BD1DF0D5FC0448FAE749
:101780000448F8E70448F6E7102900207413002005
:10179000068000F0028000F0018000F0154B13B5C8
:1017A0001868002301908DF804301DF0B6FC124B30
:1017B0001C7824B11DF0B7FC104802B010BD012206
:1017C0001A701DF0B0FC0E4B01A81C731C7783F837
:1017D0002C4083F83C4083F84C4083F85C4083F80D
:1017E0006C4083F87C4008238DF8073000F0D8FF68
:1017F0002046E2E7ECA2020010290020038000F05E
:10180000741300200A4A08B512785AB107280BD879
:10181000084A02EB00131B7B43B1002100F0B2FF2A
:10182000002008BD0448FCE70448FAE70448F8E74C
:101830001029002074130020028000F0018000F0C5
:10184000078000F00A4A08B512785AB107280BD869
:10185000084A02EB00131B7B43B1012100F092FF09
:10186000002008BD0448FCE70448FAE70448F8E70C
:101870001029002074130020028000F0018000F085
:10188000078000F00A4A08B5127852B107280AD832
:10189000084A02EB00131B7B3BB100F0FFFF002066
:1018A00008BD0548FCE70548FAE70548F8E700BF2A
:1018B0001029002074130020028000F0018000F045
:1018C000078000F00D4B1B7893B1072812D889B11F
:1018D0000B4B03EB00131B7B73B10A4B1A6D0123F7
:1018E0008340134214BF0123002300200B70704774
:1018F0000548704705487047054870471029002083
:101900007413002000000450028000F0018000F0F9
:10191000078000F00B4A10B512780C4662B1072818
:101920000CD859B1084A02EB00131B7B43B100F0FD
:10193000C7FF2070002010BD0448FCE70448FAE708
:101940000448F8E71029002074130020028000F0FA
:10195000018000F0078000F0184B2DE9F0411F6D69
:101960005B6D1F4000D5FEE701260025144CDFF813
:101970005880374218D02368C8F85060A3B1A168D6
:10198000284601316268A1609847637B012B0BD127
:1019900050B90C4B03EB45131A7B60F341021A73E9
:1019A0001A7F60F341021A770135082D4FEA460687
:1019B00004F11004DDD1BDE8F08100BF0000045047
:1019C000741300207412002000200450024B196888
:1019D000024B186814F04ABAE40A0020040B0020F5
:1019E00070B59400224605460E4628F0E5F9431CE2
:1019F0000AD058B922463146284627F00EFA002868
:101A0000034808BF002070BD0248FCE70248FAE71F
:101A100010E000F021E000F024E000F010B50446F2
:101A200028F0CEF9431C10D088B901F00BF82346FA
:101A300020F003002044984201D1002010BD53F84B
:101A4000042B0132F7D00348F8E70348F6E70348D0
:101A5000F4E700BF0EE000F021E000F024E000F029
:101A600008B51DF053FB014B186008BDE41A0020B7
:101A7000014B18681DF04EBBE41A0020044BD3F84C
:101A80008420D206FBD4D3F88400C0F381107047C1
:101A90000040005038B5104B0546D3F820310C46B5
:101AA00003F00303022B0BD0032B0DD0012B0FD11E
:101AB000FFF71EFC052305B1286004B1236038BD83
:101AC000FFF74CFC0323F6E7FFF75EFC0223F2E787
:101AD00001230020EFE700BF0080005073B50D46E2
:101AE00000210E4B0191D3F88041064604F0030417
:101AF000012C09D0022C0CD00C460EB1019B336096
:101B000005B12C6002B070BD01A8FFF7C3FF0F2420
:101B1000F3E7FFF739FC0190EFE700BF00800050CA
:101B200038B5184B0546D3F824010C4600F00700E1
:101B3000062823D8DFE800F0040A121A1E0E160049
:101B4000012305B1286004B1236038BDFFF7D0FB45
:101B50000523F6E7FFF7CCFB0623F2E7FFF7FEFBD2
:101B60000323EEE7FFF7FAFB0423EAE7FFF70CFC99
:101B70000223E6E71DF06FF90723E2E7002318468A
:101B8000DFE700BF0080005038B5104B0546D3F8A2
:101B900040310C4603F00303022B0BD0032B0DD076
:101BA000012B0FD11DF059F9092305B1286004B1AB
:101BB000236038BDFFF7ECFB0823F6E71DF050F972
:101BC0000B23F2E701230020EFE700BF0080005065
:101BD00038B5144B0546D3F800020C4600F0070058
:101BE00004281BD8DFE800F003090D1115000123BC
:101BF00005B1286004B1236038BD1DF02EF909231A
:101C0000F6E7FFF7C5FB0823F2E71DF029F90B23E0
:101C1000EEE7FFF78DFB0E23800AE9E70023184665
:101C2000E6E700BF0080005038B5104B0546D3F8FA
:101C300040320C4603F00303022B0BD0032B0DD0D4
:101C4000012B0FD11DF009F9092305B1286004B15A
:101C5000236038BDFFF79CFB0823F6E71DF000F971
:101C60000B23F2E700231846EFE700BF0080005087
:101C700038B5104B0546D3F860310C4603F003032A
:101C8000022B0BD0032B0DD0012B0FD11DF0E5F84B
:101C9000092305B1286004B1236038BDFFF778FB44
:101CA0000823F6E71DF0DCF80B23F2E70123002000
:101CB000EFE700BF0080005010B40D4C0B46D4F885
:101CC000204204F00304012C0AD0022C0CD008B1ED
:101CD000002101600BB100221A605DF8044B7047CF
:101CE0005DF8044BFFF7D6BE5DF8044BFFF74CBF21
:101CF0000080005038B50C4605461DF007FA054B2C
:101D00009A6A54402C4054409C62BDE838401DF013
:101D100001BA00BF00C00050B0F5207F1FD009D825
:101D2000B0F5007F15D003D868B1B0F5C07F0AD0F8
:101D300000200CE0B0F5607FFAD10B4BD3F88000A7
:101D4000C0F3011003E0084B186FC0F303300130FB
:101D50007047054BD3F89000C0F30460F7E7024BDF
:101D6000186FC0F38020F2E7008000504FF400327B
:101D70000E4B014610B500209A66FFF7CDFF484391
:101D800041F671320A490B4B884294BF0020012072
:101D9000DC69DA639A6822F4401242EA00529A60DF
:101DA000E20344BF0022DA6310BD00BF0090005080
:101DB000005A620200000350420910B50FD0012AF8
:101DC0000FD00A4B0A4C022A18BF234600F01F000E
:101DD00049B103F58053012282401A6010BD1346B9
:101DE000F4E7044BF2E703F50053F4E76880005092
:101DF000608200506480005008B580201DF0A8F873
:101E0000034B98429EBF4FF48032024B1A6708BDC5
:101E1000005A620200A000501FB50023B0F5807F79
:101E2000019377D028D8382800F094800BD8243834
:101E3000092810D809280ED8DFE800F0676767671F
:101E40000D0D620D377D52285FD008D83D283BD05C
:101E50003E2800F08480019805B05DF804FB8028DE
:101E6000F9D1414B1B6F03F00703013B032BF2D861
:101E7000DFE803F044413F6CB0F5D06F5BD019D878
:101E8000B0F5A06F66D00AD8B0F5806F3DD0B0F540
:101E9000906FE0D1002001A9FFF742FEDBE7B0F52B
:101EA000B06F2DD0B0F5C06FD5D1002001A9FFF7DC
:101EB0006BFED0E7B0F5006FECD00AD8B0F5E06F5C
:101EC0004DD0B0F5F06FC6D1002001A9FFF7D0FECC
:101ED000C1E7B0F5086FBED1234BD3F8003103F052
:101EE0000303022B2CD0032B2ED0012B30D1FFF774
:101EF00035FA032300E005230193ACE70223FBE757
:101F0000002001A9FFF7EAFDA5E7002001A9FFF7DE
:101F1000C1FDA0E702934FF0E0231B695B0705D5E5
:101F2000FFF706FA0C230393039BE5E703A902A836
:101F3000FFF72AFEF8E7002001A9FFF749FE8AE72C
:101F4000FFF726FA0823D7E71CF085FF0723D3E71E
:101F50000123D1E7002001A9FFF7AEFE7BE70020B7
:101F600001A9FFF761FE76E7008000504FF40022E0
:101F7000034B5A66012203F580439A62704700BF03
:101F80000090005008B5FFF747FF082811D0093826
:101F9000012802D94FF6FF7008BD4FF40012064B1E
:101FA0005A6603F5D8335B6ADB07F3D54FF4FA7052
:101FB000F2E7024B1888EFE700900050D00C0020A9
:101FC000F8B504468020FFF727FF032800F087803C
:101FD0004FF40022424B02215A6645F60E03414A55
:101FE000C2F88030404B9962012103F58053996219
:101FF000936DD903FCD4D4E900131B0543EA0163B4
:10200000E17B94F820500B43217BE77E43EA0143B8
:10201000617B6D0143EA0133A17B43EA81131361C4
:102020009169D4E904031B0643EA806301F000418F
:102030000B43A17E94F823000B43217E43EA014326
:10204000617E43EA01239361136AE66923F00D037D
:1020500094F8221043EA8703002E2DD11362966A6A
:1020600094F8213045EA031326F033052B4343F05F
:10207000010393621D4D1B4B9A6D35EA0202FBD1A1
:102080000222194DAA621A659A6D5200FCD41A698F
:10209000A56822F4700242EA05521A614FF000422C
:1020A000114B9A6119B9022203F580539A6278B9EB
:1020B00001220F4B9A620BE0334343F00803136293
:1020C000936A23F0330303432B4343EA41039362B0
:1020D00094F824301BB1034B064AC3F88020F8BDA6
:1020E0000090005000C0005000D00050030001409C
:1020F00000E00050F1A7FFFF1E4BFF2870B59E6A5D
:1021000035D89A6D12F4803F18BF01211A4A18BFC2
:102110009162022191629B6DDC0303D5154A936D98
:102120009907FCD50222144B124D1A65AC6D14F0C0
:102130008044FBD1114AAB6992F9002023F47F035C
:10214000024423F47F4382F3080243EA002343EA74
:102150000243AB6131460220FFF7CCFDAB6DDB03E0
:1021600003D531460120FFF7C5FD204670BD21246F
:10217000FBE700BF00C0005000D000501129002034
:10218000014B93F9000070471129002001221548E6
:10219000154B816A9A62826D02F00302032AFAD11A
:1021A00002229A621A650F4A936D5B00FCD40F48B5
:1021B000936D30EA0303FBD101220B4B1A65A3F5A3
:1021C00080539A6D9007FCD49A6D9207FCD5022239
:1021D000054B1A65034A936D9B07FCD50320FFF757
:1021E00089BD00BF00C0005000D0005003000100B6
:1021F000F0B5D0E901434FF480061A4A41780578DA
:1022000056664FF4D156022702F5B8325662164E82
:102210004F2977604FF0010728BF4F2106F5805600
:1022200077601669F603FCD441EA052151611B0170
:10223000417B43EA04230B43017B43EA4103936060
:10224000C37B817B1B0143EA4113417C0B43017C2F
:1022500043EA41035360837C13B16FF4D15353625B
:10226000F0BD00BF0090005000100250014B1880DC
:10227000704700BFD00C0020014B1880704700BF92
:10228000CE0C00204FF4001208B5184B5A660223FA
:10229000174A5360936813F48033FBD1012822D18D
:1022A000FFF75CF8134B984215D003F5122303F5A2
:1022B000F863984213D0104B00EB8002400AB3FB46
:1022C000F0F3520A0A49CA620B6301234B620022EF
:1022D000074B5A6008BD45F67A13084AF2E745F6FF
:1022E0001A03074AEEE75362F1E700BF009000507F
:1022F0000040025000F0490264666666D8B80500E6
:10230000BBCF0500B0F5207F10B50C4642D008D8F1
:10231000B0F5007F33D003D888B1B0F5C07F0ED0C0
:1023200010BDB0F5607FFBD11F4A4C1ED2F8803043
:1023300023F0300343EA0413C2F88030F0E71CF0C6
:10234000FFFD1CF0C9FE4FF48031184B164A196787
:10235000136F013C23F4704343EA04331367FEF721
:10236000E7FF0446FFF78AFBC0F1020120461CF09C
:10237000ADFE00F02DF8BDE81040FFF73DBD0A4A64
:102380004C1ED2F8903023F0F85343EA0463C2F8AD
:102390009030C5E7044A4C1E136F23F4806343EA70
:1023A00084231367BCE700BF0080005000900050FA
:1023B00008B50121022000F08FF81CF0C1FD1CF0CF
:1023C0008BFE4FF48032014B1A6708BD009000501D
:1023D00008B54FF4C0701CF0BBFDBDE808400449CF
:1023E000884294BF012102214FF42070FFF78ABF79
:1023F00080F0FA02034B5868C0F30800003818BF99
:102400000120704700ED00E010B5224B70B94FF489
:102410000031214A1860516602F598325268012A4B
:1024200003D11E4AD2F800211A6010BD1B68002B90
:10243000FBD01B4A5268012AF7D0184A8020C2F804
:102440000031FFF7E9FC05281FD14FF4C070FFF7FA
:1024500063FC0128044604D102214FF4C070FFF749
:1024600051FF07220F4B1A610122A3F580535A60D6
:102470000B4A1369DB07FCD5012CD6D12146BDE8F8
:1024800010404FF4C070FFF73DBF0122064B5A6069
:10249000CBE700BFE81A00200090005000800050F9
:1024A00000C0015000E0015000D00150044A4178C2
:1024B000536F23F4407343EA01235367704700BF0F
:1024C00000400050034A0179D36E23F030030B43E0
:1024D000D366704700400050F8B504461C4BD3F853
:1024E0008420D106FBD4D3F88430C3F381139C42FB
:1024F0002CD0FEF703FF012C064602D121461CF02A
:10250000E5FD1CF003FE4FF00072124B07465A66C1
:1025100020461CF00EFE4FF480630D4D621E93406A
:102520002B676B6E9A0103D4D5F884309B060AD5CD
:1025300038461CF0EFFD022C08D13046BDE8F840CB
:1025400000211CF0C3BDD5F88430EAE7F8BD00BF18
:10255000004000500060005010B50C4608B9FEF76E
:10256000CDFE074B21461B783BB1064B984204D861
:102570000120BDE81040FFF7AFBF0220F9E700BF20
:1025800012290020005A62020278034B0121002028
:102590001A70FFF7E1BF00BF122900204FF0004280
:1025A00038B5264B26495A6601224A604AF6CD3193
:1025B00003F50B235D6C1964154030BB9968C9079E
:1025C0000BD4002401221F4B5A6015B11E4B1F4A29
:1025D0001A6425F0A1FE204638BD1A498A601C4ABB
:1025E000D96ACC0705D4904201D10724EAE701302B
:1025F000F6E79042E5D1F8E70132DC6A14F008040E
:1026000006D08A42F8D10724DFE700221049F4E718
:102610008A42F8D020220B4B0B495A620122A3F5C3
:1026200080539A6023460A4A486A800603D493423C
:10263000E9D00133F8E79342C7D1E4E700900050B6
:102640000050095000600950004009503254FFFF0B
:1026500040420F004FF0004238B5174B174C5A66F6
:10266000012203F50C235A604AF6CD33656C2364CE
:10267000437893401343124AD363C3788178A268A6
:102680009B0043EA011322F074021343A360027912
:10269000837943EA022323614279C37943EA02231F
:1026A00063610078FFF77AFFEB0744BF054B2364B3
:1026B00025F032FE012038BD009000500040095046
:1026C000004000503254FFFFF8B504460D461F4647
:1026D00016464AB101238B403021184A01FB0022E3
:1026E000F7B141F21001535004EB4403072D4FF0B2
:1026F0000F014FEA031316D8A80006FA00F2814032
:102700000F4818441CF016FD4EB9012330210B4A26
:10271000AB4001FB042277B141F210015350F8BDE8
:1027200042F21001DFE7A5F10800800006FA00F28E
:1027300081400448E5E742F21001EFE700C0035092
:1027400004C003500CC003504FF400120B4B10B5E3
:10275000C3F88020BFF34F8FBFF36F8F0024FF2299
:10276000074B21465C6520209A625C60FFF724FBE2
:102770002146BDE810402120FFF71EBB00E100E02C
:1027800000000450044A054B002908BF13460122EB
:1027900082401A60704700BF40100450402004502F
:1027A00010B5012104462020FFF706FB012121205E
:1027B000FFF702FB0122114B5A60227812069A6041
:1027C0006178A27842EA01429A61FF229A6200226D
:1027D0009A631A644FF000425A654FF0FF324FF48B
:1027E000001103F500531A65054AC2F88011E37819
:1027F0001B01DBB282F81533116010BD00000450DC
:1028000000E100E0F8B50125C3B2DFF888C0D1F8D7
:1028100000E09D408F7ACB7A0C46097BCCF8505073
:102820000CF5005C4CF820E04FF0300E184E1B0504
:102830000EFB006094F80DC043EA074343EA41539E
:1028400022F00302C0F860C0C36502671CF065FC9B
:10285000736D2B437365237A13B1336C2B4333644D
:10286000637A13B1B36B2B43B3632279A37943EA41
:102870000243084A93616179E37943EA01430649D7
:102880008B61034B55639D64BDE8F8401CF04BBC65
:1028900000000450002004500010045010B5012422
:1028A000C0B284401CF039FC044B5A6D22EA040289
:1028B0005A659C62BDE810401CF035BC0000045015
:1028C00010B50124C0B284401CF027FC074BDA6A23
:1028D000224208D15B6B9C430CBF012400241CF0F6
:1028E00022FC204610BD0024F9E700BF0000045080
:1028F0004FF40032054B9A6641F6713203F51C33F2
:10290000DA63012203F50053DA607047009000504B
:1029100041F671320121064BDA6303F50052D160B2
:102920000022DA634FF40032A3F518339A66704739
:1029300000000350CB784A7810B55B010C7843EA6D
:1029400082030A79234343EA02130C22424302F131
:10295000B0421363012C02BF8A78024B43F8202057
:1029600010BD00BFE880035008B54FF0B0435A686F
:102970006AB958B15B680BB11CF0ECFB01210D4B3F
:1029800059601CF0E7FB4FF0B043D96008BD5B68AD
:102990000BB11CF0DFFB0028F0D11CF0DBFB4FF08B
:1029A000B0430222DA601CF0D5FB0122024B5A60D0
:1029B000ECE700BF00100058002000584FF0B04175
:1029C0004B6810B50BB11CF0C5FB01220B4BC47852
:1029D0005A608378934043EA84034478234304791C
:1029E00043EA0413447943EAC4038B60044B5A60FE
:1029F0000378C3F10203CB6010BD00BF0020005874
:102A0000001000584FF48032064B5A6603F5E62357
:102A10005B69C3F38512827003F03F021B0B4270A7
:102A20000370704700900050014B986CD96C704750
:102A30000080E00F024B1868C0F30740704700BFEA
:102A40000080E00F0120034B9B680A3303F01F0353
:102A5000984070470080E00F70B5054616461C464A
:102A600021B94FF420701CF073FA0146402C1BD0A2
:102A700003D8DCB1202C1BD070BD602CFCD104230A
:102A800003FB06F2530803EB4113B3FBF2F3094ACD
:102A9000203B02EAC303AA6822F06002AA60AA6887
:102AA0001443AC60EB61E7E70623E9E71023E7E7AF
:102AB0000823E5E7F8FF7F00012200F580535A6004
:102AC00040F6AA6341F20502436100230B4983608B
:102AD000C365C26000F500520361C361C3649164C1
:102AE00007498365884203D103650023436502E0FB
:102AF00004498842F8D0012353607047FFFF01006A
:102B000000C005500000065070B50D46FFF7D4FF19
:102B1000012300F580567360AB7C04461BB18368CB
:102B200043F080438360EB7C5BB1354A2B7D94425C
:102B300045D1A2F51032C2F88C31E36D43F0800329
:102B4000E3652A8A6B7B20461343EA891343E360DB
:102B50002B7BD5E90112FFF77FFF6B7D1BB1A368CB
:102B600043F48033A360AB7D1BB1A36843F40043FF
:102B7000A360EB7D2A7E1B07120502F4E00203F03E
:102B8000E0431343A365697E1D4A8B1E012B1D4B39
:102B90001FD894421BD002F5804294420CBF012200
:102BA0004FF0FF3203EB4213022041F21C62032973
:102BB000985020D10423F3652B78636170BD124ACD
:102BC000944204BFA2F52032C2F89C31B5E700223E
:102BD000E8E794420DD00C4A94420CBF01224FF01A
:102BE000FF3203EB4213022042F21C62012998508B
:102BF000DFE70022F5E7042204F50053DA65DBE79E
:102C000000C0055000C003500000065038B504460F
:102C1000054D25F0A6FB0FCC0FC594E8030085E811
:102C20000300002038BD00BFEC1A002047F6FF73F8
:102C30009A42F0B56FD002296FD8394B5B5C012BFB
:102C40006BD8384DDF0005EBC30415F83330A1789D
:102C5000012B13D10025E078401AA84202D808447D
:102C6000C0B2F0BD431B6668A0EB530336F9136096
:102C70009642D4BF1D4603F1FF30EEE7606800289E
:102C8000EFD0B0F90040944204DBB0F90240944226
:102C9000B8BF144683883D44FF2B19BFC8224FF0AC
:102CA000280CB0F90620B0F908C0A2EB04030CBF51
:102CB0000126002693FBFCF333446E781BB29E4240
:102CC00001DD002B01DA731E1BB24FF47A7C013355
:102CD0009BB2071D5D1E2DB24FEAC50E00EBC50568
:102CE000EA88AD689E4214FB025222EAE27202F1C7
:102CF0005C02B2FBFCF204DD37F83350013395423D
:102D0000E8D200EB0E039888904228BF1046884214
:102D100038BF0846A4E7FF20A3E70020A1E700BFD3
:102D200011A30200EC1A00200229F0B555D82C4B53
:102D3000585C012851D82B4C04EBC00114F830002A
:102D40004B6801280FD1C8788C78904294BFC4EBAF
:102D50000001C4EB0201001BCAB28242C8BF0022BC
:102D600033F91200F0BD002B37D08878904202D39F
:102D7000B3F90200F6E7CC78B3F900009442F1D938
:102D80004C789988013CA1F1FF06714203F10405DA
:102D9000E4B2714103F10C07CEB2B44216D805EB90
:102DA000C1014FF47A756A43B1F902404968521A79
:102DB00004EBD47102EB610292FBF4F29042D1DB9E
:102DC000B3F902009042CDDC10B2CBE737F831C046
:102DD0004E1C9445E3D33146DEE70348C2E700BF0B
:102DE00011A30200EC1A00200080FFFF08B5044880
:102DF000FFF70CFFBDE80840012025F0B6BA00BF80
:102E0000E0A9020000487047D20C00207FB50222E2
:102E1000084B0949CDE901234FF00073CDE90313B5
:102E2000052301A94FF0FF30059325F0D3FA07B031
:102E30005DF804FB006A1800000204001B0603F0A2
:102E4000706300F00F000902034301F47061120483
:102E500002F470220B431343014A1360704700BF12
:102E60000020025C60B5054619B10139B1F5806FEB
:102E70000FD2094EF06810F48030FBD143EA0123F1
:102E800012072B4302F08052134343F00043736058
:102E900060BD0120FCE700BF0020025C0122054B61
:102EA0009A60DA68D203FCD4D86820F00F000004DE
:102EB000000C70470020025C014B1868704700BF8F
:102EC0000040025C014B5868704700BF0010025C74
:102ED000014B186B704700BF0010025C014B186873
:102EE000704700BF0010025C014B9860704700BF44
:102EF0000010025C014B1864704700BF0010025CB8
:102F0000014B5864704700BF0010025C014B5863CE
:102F1000704700BF0010025C0022014B1A6070472E
:102F20000010025C024A136843F00103136070470B
:102F30000010025C024A136823F00103136070471B
:102F40000010025C43F20402014B1A60704700BF9C
:102F50000010025C024A136843F0300313607047AC
:102F60000010025C044B1A6842F480721A601A68FE
:102F700022F480721A6070470010025C024A1368E3
:102F800043F48063136070470010025C034A1368C7
:102F900023F4702343EA0043136070470010025C7F
:102FA000044B1A6902605A6942609A698260DB695F
:102FB000C36070470010025C0268044B1A614268EB
:102FC0005A6182689A61C268DA6170470010025CD7
:102FD000024B1A6BD207FCD4186270470010025CD7
:102FE0000322024B186019615A6370470000025CAB
:102FF00082B01FB507930A9B04AC8B4228BF0B46D7
:1030000004E907001048D100079948BF0333016065
:10301000099948BF23F0030323F0704301F0E04116
:10302000194341F000518160002102F0E042019C0F
:103030001A4342F00052C16004618261416304B0EE
:10304000BDE8104002B070470000025C3F22034B15
:103050001A631022DA6103229A6370470000025C4F
:10306000024AD36B9B07FCD4704700BF0000025C90
:10307000044B9B6A13F0240F14BF01200020800032
:10308000704700BF0000025C08B5FFF7F1FF064B78
:10309000DB6B23F47F4323F0EF0303431EBF0122C6
:1030A000024BC3F8FC2F08BD0000025C00F0FF3F9C
:1030B0004368182B0AD0202B1DD0102B2BD1174B77
:1030C000D3F80434DB010AD401207047134BD3F842
:1030D00004349A01F8D50B6843F008030B600368C9
:1030E0000F4A934210D10B6843F040030B6000235A
:1030F000436000207047094BD3F804345B01E3D5EB
:103100000B6843F00403E9E7064A9342F1D10B68E8
:1031100043F08003EAE70720704700BF0000025C2D
:1031200014290020132900200B4607B50749D1F8C0
:103130000414C90708D5002100920246084600F091
:103140005BF803B05DF804FB0120FAE70000025CC5
:103150001346064AD2F80424D20504D50A4601468D
:1031600000201CF05ABA0120704700BF0000025C2A
:1031700013B5084CD4F80444E40508D5009313466D
:103180000A460146002000F061F802B010BD01209F
:10319000FBE700BF0000025C13B5084CD4F8044400
:1031A000E40508D5009313460A460146002000F0C6
:1031B00071F802B010BD0120FBE700BF0000025C07
:1031C00070B504460D4616468CB00A4A09AB07CACC
:1031D00083E807001A462146CDE90563CDE90333AC
:1031E000CDE9013300954FF480301CF042F90CB06A
:1031F00070BD00BF14A30200F0B51C465B68154605
:103200008DB01A07129E1AD1CBB17268934216D1B3
:103210000C4B0D4A53F8217009AB07CA83E807002D
:103220001A462946CDE90533CDE90333CDE90163DB
:10323000009447F480701CF01CF90DB0F0BD07201D
:10324000FBE700BF20A3020014A30200F0B516465E
:103250005A688DB0102A0D46129F15D17A68102A2F
:1032600012D10A4A09AC07CA84E807002246294657
:10327000CDE90547CDE90344CDE901440448009672
:103280001CF0F7F80DB0F0BD0720FBE714A3020017
:1032900030000100F0B516465A688DB0102A0D4670
:1032A000129F15D17A68102A12D10A4A09AC07CAAE
:1032B00084E8070022462946CDE90574CDE9034498
:1032C000CDE90144044800961CF0D3F80DB0F0BDE0
:1032D0000720FBE714A302001000010082B070B5C4
:1032E00086B0149D03AE202D86E807000B9359D8B5
:1032F00005EB85038B4203D006236B438B4253D1EE
:103300000C9BAB4250D10F9BB3EB450F4CD1129AA3
:10331000934249D1012229462220159BFFF7A2FDA5
:10332000044630BB034606220E210C20FFF786FD23
:103330000123CDE900332B4696E807001CF02CF85A
:103340000E230BAA009307CA2B461BF070FF0C2319
:10335000164C00930EAA2B4607CA1BF098FF636811
:1033600023F07F0343F026036360FFF797FD30B13E
:103370000624204606B0BDE8704002B0704763687E
:1033800023F07F0343F022036360FFF787FD0446C9
:103390000028EDD1062311AA009307CA2B461BF083
:1033A000A9FFE6E70124E4E70724E2E70020025C46
:1033B00070B598B0002843D02C4C08AD0FCC0FC589
:1033C0000FCC0FC50FCC0FC594E80F0085E80F0098
:1033D0006D4604AE04F1100320340FCB85E80F00D6
:1033E00094E80F0086E80F00FFF7BCFD0420FFF70C
:1033F000CDFDFFF7A7FD3046FFF7DEFD002408AE48
:1034000056F8040B0134FFF7E3FD102CF8D1FFF759
:1034100059FD0328FBD90024FFF77EFD2646FFF760
:103420004BFD55F8043B01365840042E44EA000495
:10343000F5D12CB1012206200D4B1A7018B070BDC9
:10344000FFF790FD0820FFF74FFD0020FFF752FD2A
:103450000720FFF755FD4FF40070FFF757FD0820D8
:10346000FFF794FDFFF75EFD0020E7E7FCA30200F5
:103470001629002008B5FFF775FD0122014B1A70CF
:1034800008BD00BF152900201FB51CF045FA0446F1
:1034900030B1012206240D4B1A70204604B010BD35
:1034A000FFF70AFD0090FFF707FD0190FFF704FD0D
:1034B0000290FFF701FD03906846FFF77DFDFFF7DF
:1034C000D9FFFFF747FDFFF759FDE6E71629002072
:1034D00006289ABF014B185C002070475CA40200CC
:1034E00030B5154B87B00293144B0390049346F606
:1034F00011030D46059300F077F91428044616D100
:1035000068461CF0B3FA4FF0A843032202A95A639D
:1035100019601D619A63DA6B9207FCD1142C02D1F9
:1035200068461CF0B1FA00F093F9044601E0002867
:10353000E9D0204607B030BD041B00200400002065
:103540002DE9F04FB1B005468C469E46E8466F4ED9
:10355000DDF8EC90409C06F1100A4746306871682F
:10356000083603C75645B846F7D13E9B03EB020821
:10357000C8F1000A0AF00F0AB9F1000F00F09D80AF
:10358000C9F1000707F00F070121DDF8FCB044F096
:103590000050C4F11006CDF810B00591069030022D
:1035A00000F4F85040F021000790B9F1000F40F00E
:1035B0008680CDF820D047F00050002D00F08480A8
:1035C000099121210A9041EA07210B9142F0005014
:1035D000CDF830C03D9B08A94FEA0A2C0D910E9002
:1035E0004CF041000F901093002A75D13E9B119131
:1035F00043F0005312933C9B1390149310AB15931C
:10360000434B444A169340F611031793424B002153
:10361000002D08BF1346189314AB19933F4B10228B
:103620001A9311231B931CAB184625F020FC012292
:103630001D92002246F0804603461E96239205B94D
:10364000EB46102CCDF880B024AE4BD1012322469E
:10365000002130462193229425F009FC20AB002163
:1036600025938F4218BF334647F0804226923A9AFC
:103670002CA828922993B2FA82F35B0949EA837352
:1036800010222B912A9325F0F2FBB9F1000F00D004
:1036900028AED04448F080432CA918A82D962E932C
:1036A000FFF71EFF30B92DB90346A34225D10028EC
:1036B00018BF2C2031B0BDE8F08F102764E7CDF89B
:1036C00020E049F0005078E7002C3FF479AF04A9DE
:1036D000099101210A9076E73E9B0CAA11924120A4
:1036E000129388E71022002130462193229425F07E
:1036F000BEFB002CB2D10123B1E703F1C0026A4442
:1037000012F8C02C01331043CFE700BF63A40200BE
:103710001000002078A402007CA402000400002015
:10372000F0B5C0299FB0DDE9244557D0B1F5807FC1
:1037300004D0802948D029201FB0F0BD01265CB1FB
:1037400040F23447029410240396049421240197F4
:103750000594069502AC0AE040F214470294102446
:103760000396049421240594012401970695079457
:1037700001251024089409950A9221220B950C9496
:103780000D92174A0AAD0E92164A0F95109242F604
:1037900011021192129313951494159201AA169284
:1037A000D3B112AB1793042318931123199316ABBB
:1037B0001A901B9340F61103C9081C911AA806A978
:1037C0001D93FFF78DFEB7E7012614B94FF482670A
:1037D000C4E74FF48667B5E70EABE3E70F20ABE72E
:1037E00074A402001000001038B5164B5A6E42F057
:1037F00004025A66D3F8802242F00102C3F8802204
:10380000114B5B68C3F3080343B14FF0A842D36B7D
:1038100013F0430FFBD11424204638BD4FF0A843CA
:10382000DC6B14F04304FBD1084D2B681BB9042159
:10383000284602F069FB2B68013343F000432B60FC
:10384000EAE700BF0080005000ED00E0041B00200C
:10385000014B00205B68704700ED00E04FF4005220
:10386000034B00209A660322C3F86022704700BF12
:10387000009000504FF40052034B00209A66032240
:10388000C3F86022704700BF00A00050012300F081
:103890001F02A0F506200949A0F550604009934099
:1038A00051F820201A4341F82020054951F82020E2
:1038B00022EA030241F82020704700BF1C1B0020B1
:1038C000081B00200121A0F506230E4AA3F5506332
:1038D0005B0900F01F00814052F82300014342F8C9
:1038E00023100949D1E90030034488680344C868BB
:1038F000096903445B1802BFC2E90033C2E902331D
:1039000013617047081B00201C1B00202DE9F04F9D
:10391000A9B003921D4604460822339ECDE9040156
:10392000414021FA02F34B40980702F1080218BF08
:103930009B00202A1C44F4D18123B4FBF3F303EB56
:10394000C313E41A734B04F506241B7804F5506482
:10395000002B3ED1FEF73AF8074620B16FF09100F8
:1039600029B0BDE8F08F0146402208A825F07FFA73
:103970004022394618A825F07AFADFF8B481DFF83A
:10398000B491C3460BF10F0ACDF800A0102208A98C
:103990005B46D9F8000024F072FA0022014608F1D3
:1039A000100808AF914246D1CDF800A05B46102226
:1039B000D9F8000018A924F06BFA4FF0000A8346EA
:1039C00018AFD34541D1544B9845DAD10122514B20
:1039D0001A704FF0810A4FF00008DFF85CB1A4F5CF
:1039E0000627A7F550635B095BF8232004F01F014D
:1039F000CA40D2073DD4494A52F82330CB40DB07B6
:103A00002AD5B8F1000F08BFA0468123A7F6FF47CB
:103A1000B7FBF3F303EBC313FF1A07F50624BAF160
:103A2000010A04F55064DAD1039BBBB1B8F1000F71
:103A300014D0444619E057F8040BCDE90612FFF7FD
:103A400025FF079A06990132ACE757F8040BFFF7F8
:103A500039FF0AF1010AB4E7039B13B96FF08B0039
:103A60007EE7B8F1000F18BF4446349B00201C606D
:103A700076E7329B13B10023329A13600EB1002314
:103A800033601023DFF8AC9000932A4600232146D0
:103A9000D9F8000012F05CFB60BB32992A68204B19
:103AA000C9B99A4206D02146D9F8000012F0E8FBC5
:103AB0000028D3D1D5E90223DDE90410834208BFF1
:103AC0008A42A2D1039B002BCFD06B68012BCCD1B3
:103AD0006FF0840044E7102032999A420860E2D1E6
:103AE000002EE7D033462146D9F8000018AA12F07C
:103AF00083FB48B10B4B9842D5D00B4B9842D2D0A8
:103B00000A4B9842D6D029E7329A336812689B1A3A
:103B10003360CFE71729002000710800081B002040
:103B2000105D175EFFDF00F011E000F0FEDF00F037
:103B3000006D0800040B00201C1B00202DE9F04F35
:103B400087B08246894698461646DDF840B02AB1CD
:103B5000002B4FD040F26C739A424ED8BBF1010F4C
:103B60004ED8002406F110073946012005941CF0B8
:103B70000EFB0546002846D021463A4625F077F947
:103B800005ABCDE9014300942B460122504649463E
:103B9000FFF7BCFE044680B110F18C0F08BF6FF038
:103BA0008D043A460021284625F061F928461CF08C
:103BB000FEFA204607B0BDE8F08F144BC5E902A914
:103BC0002B60C5F804B02EB13246414605F1100015
:103BD00025F058F9059E0E483B462A4631460068B6
:103BE00012F01EFA18B93046FFF750FED9E76FF011
:103BF0009104D6E76FF08604DBE76FF09104D8E715
:103C00006FF08504D5E76FF08C04D2E7105D175E86
:103C1000040B00202DE9F0438DB08146DDE91478D6
:103C20000E4615461C469BB1B8F1000F05D16FF04A
:103C3000860630460DB0BDE8F083002FF7D0B7F10F
:103C4000005FF4D3C3F1005303F500439F42EED865
:103C50001022002108A825F00AF9002207AB0293E0
:103C600005AB019306AB31460093484608ABCDE95E
:103C70000522FFF74BFE06460028DAD1059BA4B1CA
:103C8000AB4215D853EA0504D1D1069B0B48C8F8BE
:103C9000004000943A46079900682B4412F058FA05
:103CA000002818BF6FF09106C3E7AB42EDD2BEE724
:103CB0005B1B9C4228BF1C46E7E700BF040B0020AB
:103CC00030B58DB00C4605461022002108A825F01D
:103CD000CEF8002207AB029305AB019306AB214659
:103CE0000093284608ABCDE90522FFF70FFE0446F6
:103CF000D8B9099B012B1BD0079D104B294618688A
:103D000012F0BEFAB8B90122A5F506230C49A3F5B5
:103D100050635B0905F01F00824051F823004240C8
:103D2000284641F82320FFF7CDFD20460DB030BDD9
:103D30006FF08404F9E76FF09104F6E7040B0020BC
:103D40001C1B00202DE9F04F89B007460E46FFF7F7
:103D5000C5F8C00709D4042401201BF0EAFD80B394
:103D6000013CF9D16FF0920028E0102200210DEB08
:103D7000020025F07CF804A8FFF712F9049B002B41
:103D8000E9D0059B002BE6D0069B002BE3D0079BD8
:103D9000002BE0D00025DFF8808008F10409B5424F
:103DA00019D34FF48A74FFF793F800F00E03062B33
:103DB0002DD1C30501D5FFF7BDF8002009B0BDE83E
:103DC000F08FFFF785F810F00E03FAD0022BF8D031
:103DD0004105DFD5C4E7FFF775F8A6EB050A8400B7
:103DE000544528BF544699E8030000238DE803009A
:103DF000CDE9054307EB050BCDF810B0029404AAFA
:103E0000D8F8003007CA1BF08DFC2544C7E724FA18
:103E100003F3DA07A6D5C6E788A402001FB504A8F5
:103E200000E90E0011460198FFF78CFF70B1FFF713
:103E300021FBBFF34F8F0749074BCA6802F4E062CA
:103E40001343CB60BFF34F8F00BFFDE705B05DF8B4
:103E500004FB00BF00ED00E00400FA052DE9F0438B
:103E60008BB01746DDE91545DDE913269C46DDE9F3
:103E70001738894621B96FF086000BB0BDE8F08392
:103E8000002FF8D00EB9002CF5D1129909B9002AEB
:103E9000F1D10DB9002BEED1B8F1000FEBD0244ACF
:103EA000944541D10288B2F5105F3DD14288B7EB0D
:103EB000D20FE0D322F04001802902D0B2F5807FFA
:103EC000D9D16CB3AE421CD23219954219D29C4260
:103ED000D1D831462246284624F0AFFF2E4614F0B2
:103EE0000F03C8D1CDE90197CDE90336CDE90543EC
:103EF000CDE907540993FFF7B1FC38B16FF0920098
:103F0000BBE79C42EBD96FF08900B6E707AA04A98A
:103F100001A8FFF709F90546FFF7ACFC0543EDD111
:103F20000020C8F80040A8E76FF08500A5E700BFB3
:103F3000004440042DE9F04FA9B0834617469A4645
:103F40000E46DDF8C890DDF8D88029B96FF08603F9
:103F5000184629B0BDE8F08F002AF7D0B9F1000F5C
:103F6000F4D0349B002BF1D0B8F1000FEED0002438
:103F7000424B0CAD93E8070085E807003C22214640
:103F800019A8189424F073FF3388728803F4E04072
:103F9000B0F5804FDAD03A4E3A480BEA060646F0C2
:103FA0001066864263D1B2F5807F60D147F212126B
:103FB00093425CD10620344ABAF11F0FD3680E94A5
:103FC0000B931369126800FB03F3CDE90C23BDD9F1
:103FD000339B402BBAD9359B1F2B4BD909F10102DA
:103FE00020261292402299F800300F97042B18AF28
:103FF000CDE91324CDE91572109611941794A5D12B
:10400000FFF72CFC03460028A2D10B9B15AACDE993
:10401000086305AB07CA83E8070002AB12AA07CA08
:1040200083E80700DDE910018DE803000F9B95E8A8
:104030000700FFF753F90546FFF71CFC55EA00039C
:1040400084D13D46349A20AE2C4603CCB442106055
:104050005160254602F10802F6D100221146B954FA
:104060000132402AFBD12022C8F8002070E76FF00F
:1040700085036DE76FF089036AE700BF14A30200B0
:104080000000FFF60000020928A30200F0B50E466A
:104090001D468BB0002853D0002951D0002A4FD0A4
:1040A000002B4DD0048804F44F43B3F5824F03D066
:1040B0006FF085000BB0F0BDE3B224F0FF04B4F55F
:1040C000E24FB0F802C0F3D1122B01D0172BEFD181
:1040D0000CF10701B2EBD10F4FEAD10733D31D4AE0
:1040E00004ACBCF5807F07CA84E80700E0D1122B3E
:1040F00007D1194B1A691B681344CDE90432002318
:1041000006930023CDE907670993FFF7A7FB002873
:10411000D0D1124A02AB92E8030083E803000AAB55
:1041200013E903008DE80300079B94E807001BF0E8
:104130007EFA0446FFF79EFB204307D12F60B9E7C4
:104140006FF08600B6E76FF08900B3E76FF092007A
:10415000B0E700BF14A3020028A3020080A402005D
:104160002DE9F0438FB01D46DDE916C600285CD06E
:1041700000295AD0002A58D0002B56D0BCF1000F8D
:1041800053D0002E51D0038803F44F44B4F5824F2E
:1041900051D1DCB223F0FF03B3F5824F40884AD0FF
:1041A000122C01D0172C46D1C31DB2EBD30F4FEA0E
:1041B000D3083AD34FEA4802571C674538D8B0F5C0
:1041C000807F38D1122C18BF4FF000094FF0000348
:1041D00008BF1C4CCDE9081805F1010114BF4C467D
:1041E000D4F80C90CDE90B120A930D93FFF736FB30
:1041F000C0B9CDE9058902AB08AA07CA83E8070060
:104200000EAB13E903008DE803000B9B94E8070055
:104210001BF02CFA0446FFF72DFB20430ED104239C
:104220002B7037600FB0BDE8F0836FF08600F9E7C0
:104230006FF08900F6E76FF08500F3E76FF092000A
:10424000F0E700BF28A302002DE9F04389B00E4635
:1042500015461F46DDF8488020B96FF0860009B08A
:10426000BDE8F0830029F8D0002AF6D0B8F1000F9D
:10427000F3D0038803F44F42B2F5824F02D06FF0BF
:104280008500ECE7DAB2122A01D0172AF7D123F021
:10429000FF03B3F5E24F41D14488C8F8004044B968
:1042A000EB00B3F5807FC8F80030E8D1122A0DD1B9
:1042B00008E0E31DB5EBD30FCFD1B4F5807FDED19D
:1042C000122A29D1354B1C681B691C44002319464E
:1042D00070192C4414F801CD10F8012D1143B2EBE4
:1042E0000C020CBF4FF0FF3C4FF0000C86420CEA72
:1042F000030343EA0203EDD10029AED0002BACDA70
:10430000109B9D4246D82A463146384624F0BAFDD5
:10431000119B00201D60A2E70024D7E73378042B0F
:104320009BD16B1EDB005B08B3F5807FC8F80030C3
:10433000A5D1122A06F1010318BF4FF000094FF072
:10434000400205934FF000030ABF144C4C46D4F8CA
:104350000C90CDE90623FFF781FA00287FF47FAFA8
:10436000CDF80C90D8F800300733DB08029308AB87
:1043700013E903008DE80300059B94E807001BF098
:1043800022FA0446FFF776FA00287FF468AF002C83
:10439000B6D062E76FF0890061E700BF28A3020092
:1043A0000388B3F5105F0ED14388DB08103B102B58
:1043B0000CD8084A22FA03F313F0010F14BF0020AF
:1043C0006FF0860070476FF0850070476FF08600D1
:1043D000704700BF010101002DE9F04F8FB0154675
:1043E000DDE918A91E46DDF868801C9F09B300B3FB
:1043F000B8F1000F1DD0E7B1BAF1000F02D1B9F149
:10440000000F16D1274B26F47E129A42B0F802B064
:1044100044D1FFF7C5FF0446A8BBB5EBDB0F4FEA5D
:10442000DB0306D316F47C1FC6F3054504D0102D1C
:1044300003D96FF0860426E010251B9A95422AD8EE
:10444000CDE9011300231022CDE905930DF12809D0
:10445000CDE9033ACDE90823CDF81C90FFF7FEF92A
:10446000044680B907AA04A901A8FEF771FE064612
:10447000FFF700FA044656B958B92A46494640465D
:1044800024F000FD3D6020460FB0BDE8F08F6FF0D6
:1044900092040025F6E76FF08904F4E76FF08504D5
:1044A000F1E700BF0002C0032DE9F041069F0C4672
:1044B0001646054610B309B302B9FBB96288B3EBDF
:1044C000D20F4FEAD20819D34C220021284624F0FB
:1044D000CEFC0D4B27F47E129A4212D12046FFF7F4
:1044E0005FFF044638B942463146281D24F0CAFC15
:1044F000C5F824802F602046BDE8F0816FF0860467
:10450000F9E76FF08504F6E70002C0032DE9F041FA
:104510000E4614460546002840D000293ED092B1F0
:104520000368214823F47E1383423AD1AF6BF7B17D
:10453000C7F1100807F128004245284406D2274455
:1045400024F0A0FCAF630020BDE8F081424624F0D7
:1045500099FC1022103C3C19AA63F4D0284605F1BE
:1045600028011BF0D9FA0028EED14644A863102C8C
:104570000CD9671E27F00F073A46314628461BF034
:10458000CBFA0028E0D1E41BDDD03E442246314680
:1045900005F1280024F076FCAC63D4E76FF08600C8
:1045A000D2E76FF08800CFE70002C0032DE9F043A7
:1045B00088461F4605468BB070B169B163B1036888
:1045C000234923F47E1088423ED113F47C1FC3F3A9
:1045D000054604D0102E03D96FF086042AE0102679
:1045E00096422BD8FFF73AF9044618BBAB6B05F19E
:1045F0002802CDE901236B6A2A1DCDE9042310238B
:10460000CDE9083007AB1A460390069005F13C0946
:1046100001A904A8CDF81C90FEF7BEFD0546FFF7E2
:1046200029F904466DB928B932464946404624F076
:1046300029FC3E6020460BB0BDE8F0836FF0890492
:10464000F8E76FF09204F5E76FF08504F2E700BF3A
:104650000002C00307B56B46054A1068516803C3E2
:104660006846FDF7F7FF002003B05DF804FB00BFCC
:1046700094A4020013B50024064A6846536F43F021
:104680000103536700948DF80440FDF71BFF20469B
:1046900002B010BD0040005030B58BB06C46174DD5
:1046A0000FCD0FC40FCD0FC495E8030084E80300BD
:1046B000134BD3F84C2112031CD5A3F5FE431C88E1
:1046C0004FF6FF739C4208BF8C248DF81940FDF70C
:1046D00057FD204480F308008DF818000948FCF7C6
:1046E00043FE6846FDF76CFC3220FDF7C5FD002057
:1046F0000BB030BDD3F85041E4B2E6E79CA4020011
:104700000080E00F00F0490230B5094D87B001ACE0
:104710000FCD0FC42B6801A8236019238DF8053035
:10472000FDF766FD3220FDF7A1FD002007B030BD8A
:10473000C4A402006FF00403502110B50A480B4CCA
:1047400013F0800F03F1010207D12344402A83F8BC
:1047500000131346F4D1002010BD03F00F03043BF7
:10476000034419761346EBE700ED00E000E100E0BA
:1047700010B504461AF0CAFC024B1C601AF0CAFCC1
:10478000002010BD301B002010B51AF0BFFC034BF9
:104790001C681AF0BFFC204610BD00BF301B002073
:1047A000034B0222186800238068194618F0CEBF18
:1047B000080C002030B51446054687B010461BF0A3
:1047C00083FA6369024683423CBFD4E903315B1834
:1047D0001B1A7BB10F49049403910021CDE90131EB
:1047E000012300932846D4E900131AF05AFB002055
:1047F00007B030BD0122627694F82D20002AF6D051
:1048000084F835301321E369204698472046636ACF
:104810009847ECE7B54700002DE9F04788B004461B
:104820000F46164698461AF078FC8146002E7AD03C
:10483000237E03F0FF02002B00F0A28020461BF035
:1048400043FA6569A84205D1637ED4E90332134473
:104850005D1B01E0F9D9451BB54228BF35461AF06A
:104860005CFC94F82D308246002B6DD12A463846E8
:10487000616924F007FB63692E462B44636121E0E4
:10488000037803F0FD0111295BD1216B814205D131
:10489000A3F111014B424B4184F83430013E63696E
:1048A000216B01328B4203F1010308BF2363636173
:1048B00095426069E4D1D4E90323216B1344994202
:1048C00000D122630025D4E903236169134499428E
:1048D00008BF6261207A6576FCF794FF20461BF0E2
:1048E000F3F96369834232D1257694F82D30E56877
:1048F000656103B125632046636A9847214B0494A0
:1049000003930023029323692A4601930123009312
:1049100063682168207A1AF0C4FA207AFCF792FFC3
:1049200050461AF000FC4846C8F800601AF0FBFB3D
:10493000D8F80030002B0CBF1B20002008B0BDE8C9
:10494000F08707F8013BAAE72E460022B0E70123D3
:10495000207A23760DF11E01FCF7DCFF9DF81E3056
:10496000002BDAD00DF11F01207AFCF7ABFF9DF888
:104970001F100029D1D12246207AFFF71BFFCCE778
:104980001646D0E7B5470000002807DB01234109A0
:10499000034A00F01F00834042F82130704700BFF7
:1049A00000E100E0002808DB01224309034900F090
:1049B0001F008240603341F82320704700E100E08F
:1049C00070B504460568FFF7DFFE844202D100207F
:1049D000FFF7CEFE95F936603046FFF7E3FF002E75
:1049E0000CDB01221949730906F01F06B24020337F
:1049F00041F82320BFF34F8FBFF36F8F95F93760D6
:104A00003046FFF7CFFF002E0CDB01220F49730960
:104A100006F01F06B240203341F82320BFF34F8F2A
:104A2000BFF36F8F287AFCF72DFF287AFCF790FEF2
:104A3000FCF76CFE00232846C4E90033C4E90433C4
:104A4000A360AB6ABDE87040184700BF00E100E01A
:104A50002DE9F0430C461546064687B0402200215A
:104A600020461F4624F003FA95E8030000232A6934
:104A70002376EB6884E80300C4E904232A7DE3601D
:104A800084F82C20AA7D2363012384F8343084F831
:104A900035300E9B84F82D2023620F9BE761636203
:104AA000109BA3622B7A84F836306B7A84F8373007
:104AB0002D4B346073602D4BB3602D4B33612D4B08
:104AC00073612D4BF360FCF769FE38B12B4B9842B4
:104AD00004D01024204607B0BDE8F083002104F183
:104AE0000800FCF7E3FD07460028F2D14FF001086B
:104AF000234B3362234B84F83C80B361224BF36138
:104B00009DF8483084F8390084F83B309DF84430F3
:104B1000204684F83A30697D84F838801BF0E4F848
:104B200095F909904846FFF73DFF4846FFF72CFFEF
:104B3000164B0494CDE902732369CDE900836368C1
:104B4000E2682168207A1AF0ACF904460028C0D146
:104B500095F908502846FFF725FF2846FFF714FF70
:104B60003046FFF705FEB5E739FD010019480000A2
:104B7000B7FC0100BDFC0100C1490000038000F04A
:104B800091FC0100E9FC0100C3FC0100B5470000F5
:104B90002DE9F04101271C46584B86B00293584B33
:104BA0000C9D0193574B904600930A46CDE903773D
:104BB0002946554BFFF74CFF0646002840F09680EB
:104BC000236839462B6463683A206B64637A85F8FE
:104BD0004930237A85F84830E37A85F84B30A37A58
:104BE00085F84A30637B85F84D30237B85F84C305F
:104BF000E37B85F84F30A37B85F84E30FDF7DCF87A
:104C00003B460422617A207AFDF75EFD3B46022294
:104C1000E17AA07AFDF758FD39466068FDF7CCF8D7
:104C200088F8006041462068FDF76EFF1422637C1F
:104C30005B0103F1A04303F57033C3F81C26617ACE
:104C4000227A42EA0142C3F83426E17AA27A42EAA1
:104C50000142C3F82C2685F8506098F81930032BD0
:104C60004AD8DFE803F03447021C022385F85030AD
:104C700000230422E17BA07BFDF726FD022741F201
:104C80001C61627C214B03EB42104750E07BA17B0F
:104C9000B13241EA004103EB4213996017E001276A
:104CA00085F8503002220023617B207BFDF70CFD4C
:104CB000637B227B617C42EA0342154B49015A50D7
:104CC0000422236803F58053DA65002FD0D1237ABC
:104CD0002A6C85F84830637A052185F84930D36C11
:104CE000206843F00403D3641AF080FA304606B01B
:104CF000BDE8F0810027D3E72326F7E767FE010030
:104D00005BFE0100F3FE0100E7FE010000C003505E
:104D100024D60350BFF35F8F074B5A6A22F48032C8
:104D20005A62D3F8942022F00102C3F89420BFF312
:104D30004F8FBFF36F8F704700ED00E070B52948CB
:104D4000294CFFF7E7FF8442284D294919D1D5F8AE
:104D5000C03023F0FF0343F0A003C5F8C0304FF08C
:104D600080430A68214D234EC5F8982043F0010383
:104D700001328442C5F89C60C5F8A0300A601ED09C
:104D80000DE0D5F8C02020F01F03203B22F0FF02E9
:104D900042F0A002B3F1005FC5F8C020E1D2164B8B
:104DA0000A68124823F01F0343F00303C0F8982059
:104DB000C0F89C30114B0132C0F8A0300A60BFF33C
:104DC0005F8F0522094BC3F894205A6A42F480325F
:104DD0005A62BFF34F8FBFF36F8FBFF34F8FBFF395
:104DE0006F8F70BD040D0020B40E002000ED00E0B8
:104DF000341B002003000020D30E0020E1FFFF3F02
:104E0000F8B51446FFF786FF1F2C27D90027C206E6
:104E10002A4D1CBF20F01F0020302A68CB06284BEB
:104E200018BF21F01F01FCB2A2422BD8D3F8C0401A
:104E300020F01F0024F47F4444F4807421F01F010B
:104E4000C3F8C04040F00300C3F8982041F00301CC
:104E50000132C3F89C00C3F8A0102A600020BFF301
:104E60005F8F0522164BC3F894205A6A42F48032B1
:104E70005A62BFF34F8FBFF36F8FBFF34F8FBFF3F4
:104E80006F8FF8BDC3F89840D3F89C40D3F8A0606A
:104E900024F01F04A04226F01F0601D1B142DDD04C
:104EA000B04201D8A14207D2D3F89840013724F08C
:104EB000FF04C3F89840B6E72820D0E7341B002051
:104EC00000ED00E0BFF34F8F0549064BCA6802F4BE
:104ED000E0621343CB60BFF34F8F00BFFDE700BF1D
:104EE00000ED00E00400FA05054B1A782AB95B785A
:104EF000002B0CBF0320022070470120704700BF29
:104F00001F2900200329F8B598BF124B05460E460D
:104F10008CBF00245C5C032805D8DFE800F00208A1
:104F20000B0E44F002040C4B1F684FB9F8BD44F05F
:104F30000804F8E744F02004F5E744F08004F2E7C1
:104F40007B681A68144203D0314628465B6898474C
:104F50003F68EAE7D8A40200441B002038B5104D92
:104F60002B78ABB10F4C23781BB100F0D7F900239D
:104F7000237000201BF026F80B4C50B100F020FAF3
:104F80000023012120782B70FFF7BCFF0123237041
:104F900038BD0122054B1A702278054B1A70F7E7CD
:104FA0001A29002019290020212900201B2900206E
:104FB0001C29002070B51AF0A9F8124E0546337866
:104FC0009BB900F01DFB044620B128461AF0A2F858
:104FD000204670BD0C4819F046FF00F069FD0B4BF0
:104FE0001C6000F095FB0A4B186000F0F3F81AF013
:104FF000EBFF084B002418600123284633701AF099
:1050000089F8E5E722290020441B0020381B0020F6
:10501000401B00203C1B00202DE9F843284A0138A2
:10502000135C39B1274F013339781354012904D85F
:10503000BDE8F883013B1354FAE7FFF755FF012859
:10504000044635D81AF062F8DFF88480054698F8EF
:10505000003013B31C4E33781BB9012232701B4A47
:105060001370DFF8709099F8003023B100F056F912
:10507000002389F8003028461AF04CF801201AF075
:10508000A1FF1AF043F8337805461BB100F098F9F8
:1050900000233370002388F8003028461AF03AF8CD
:1050A0003878A042C4D02146FFF72CFF3C70BFE700
:1050B0000329F5D10228F3D11AF08AFFF0E700BFE7
:1050C0001F29002021290020182900201B29002049
:1050D0001A2900201929002010B504461AF016F8E4
:1050E000002C0CBFFF210121064A13780B44DBB2D0
:1050F0001370B3FA83F3BDE81040034A5B091370E1
:105100001AF008B81E2900201D29002038B519F012
:10511000FDFF094B05461B78012B04D819F0FAFF57
:105120000024204638BD054B1C6800F07DF904447E
:10513000284619F0EFFFF4E721290020381B002052
:1051400038B54160044619F0E1FF054621460448A0
:1051500019F08CFE2846BDE8384019F0DBBF00BFCF
:10516000441B0020054B1B685843054B00F5742079
:1051700000F23F20B0FBF3F0704700BF401B00205F
:1051800040420F0073B5114E0446337883420FD06E
:105190004FF400730E4DADF8043058B101A8FDF77F
:1051A00085F94020FFF7DEFF2B68181A286034705D
:1051B00002B070BD8DF8050001A8FDF777F9402019
:1051C000FFF7D0FF2B681844F0E700BFE60C002083
:1051D0007C1B002073B5002401A88DF80440FDF766
:1051E000D3F92046FFF7CEFF404A4149136F4148AB
:1051F00003F007030B60D2F800113F4D01F00301EB
:1052000001604FF400203D49032B48664FF4003005
:10521000486601F598318969C1F3400129705DD074
:10522000D2F8203103F00303981E43424341D2F8E1
:105230002421334C02F00702022A08BF43F0010385
:105240004FF4C8702370FFF78DFF00222D4B2E49BD
:1052500018602E4E0B680132D2B20A2A46F8040BAF
:10526000F9D1034400EBC00003440B602B78284DB8
:1052700063B323781D4A3BB9D2F8003103F003032E
:10528000591E4B424B412370D2F8003103F0030307
:10529000022B25D0032B26D0012B17D1FCF75EF86B
:1052A000024698B11B4B1C4EDC6800231946C4F320
:1052B0000B04013404EB84040138E4FB060117F00D
:1052C00041FFFFF74FFF2B6803442B601F20FFF7C0
:1052D00049FF2B6803442B6002B070BD0123A6E791
:1052E000FCF756F8DCE719F0B6FDD9E7008000506E
:1052F000801B0020841B00202529002000900050E6
:1053000026290020481B00204C1B0020501B002099
:105310007C1B002000C0015040420F00F8B51F4B1D
:105320001B78002B39D01E4C2378B3B91D4B9A6DD6
:10533000D10302D5DA6D92072FD49B6DDB072CD4F5
:105340001AF0CBFE184B194A1860136F23F00703AD
:1053500043F003031367FBF7EBFF1AF0BEFE124B9B
:10536000134D1B68134EC01A2B78134F56F8232089
:1053700046F82300111A3A681048521A0A213A6076
:105380000932B2FBF1F20133DBB20260B3FBF1F29E
:1053900001FB12332B7000232370F8BD2629002057
:1053A0002429002000C00050781B002000800050FD
:1053B00023290020501B00204C1B0020481B0020EC
:1053C00008B519F0B3FE124B12491A6F096822F0A2
:1053D00007020A431A671049D3F82021096822F00E
:1053E00003020A43C3F820210C49D3F82421096899
:1053F00022F007020A43C3F82421094B1B7813B19A
:105400000122084B9A62BDE80840FBF791BF00BF3C
:1054100000800050801B00208C1B0020881B002077
:105420002629002000E00050054B187818B1054BE4
:10543000186800EBD000044B1B681844704700BF8D
:1054400026290020481B00207C1B00200122014B44
:105450001A7070472629002038B51AF04CFE002536
:10546000084B094C1A682368C31A2AB123B1516941
:10547000994203D3C91A5161206038BD55615B1A46
:105480009268F2E7981B0020941B0020C38870B537
:1054900004460D463BB9FFF739FE8542064602D267
:1054A0001AF084FD35460E4965610B688BB90C60B6
:1054B000A3600DE0AD1A9A68184665616AB113469B
:1054C0005A69AA42F6D930B18460521BA3605A616E
:1054D00070BD0020F4E70C60F7E79C60A260F7E77E
:1054E000981B002038B5134D2B685B6993B1124AA5
:1054F000022014681C441AF005FE204600F06CFAE5
:1055000000230E492A680B70D088800709D5012333
:105510000B7038BD02201AF0F5FD022000F0A6FA4B
:10552000EEE79268002AF4D050690344012BEBD9CE
:10553000EFE700BF981B0020941B002028290020C3
:1055400070B516469DF81420C0E903360271049A1E
:10555000BDF818300260002204460D468260C38008
:10556000EEB91AF0C8FD2844A0619DB12E4619F08D
:10557000CDFD0546FFF770FF31462046FFF786FF59
:10558000104B1B68A34201D1FFF7ACFF284619F06E
:10559000C1FD02E0E36865617BB9002070BD1AF0CF
:1055A000AAFD3044A061002DE0D1E3686561002BC5
:1055B000DDD0204621689847D9E7204621689847E2
:1055C000EBE700BF981B002000220C490B687BB161
:1055D00083420AD183687AB1936083681BB15A69A8
:1055E00041690A445A61002070471A469B68EEE7F9
:1055F0000028EFD0022070470B60EEE7981B0020D8
:1056000070B519F08AFD144E05463478FCB9134B79
:105610001C60134B1C60134B1C8000F09BF9012095
:105620001AF070FD1AF07AFD0F4B0246186020B98F
:10563000284619F078FD232070BD234640F2E7315B
:105640000A4817F07FFD0A4B186001233370284683
:1056500019F069FD0020EFE729290020981B0020A0
:10566000941B0020942800209C1B002018FCFFFFA6
:10567000901B002070B5044640B319F047FD144E4E
:105680000546FFF7E9FE3068A04209D02046FFF743
:105690009BFF0446B0B1284619F03CFD204670BD82
:1056A000FFF792FF04460028F5D133683BB902208A
:1056B00000F0C4F9284619F02DFD0024EEE7FFF7AD
:1056C00011FFF7E73368002BF4D1F0E72224E5E778
:1056D000981B002038B50C460546A8B1A1B100239F
:1056E0000B7019F01AFD0121084B1B6833B919F032
:1056F0001AFD002038BD9D4204D121702278002A75
:10570000F9D0F4E79B68F1E72220F3E7981B00202B
:10571000014B1868704700BF9C1B0020F8B50C4B6C
:1057200005461B680E4683420FD3002440F2E73043
:105730002146084B4FF47A721F680023E5FB0701EE
:1057400017F000FD30602046F8BD2120FCE700BFC7
:10575000901B00209C1B0020F0B51F46002387B043
:105760000C46164605468DF8133050B30DF1130163
:10577000FFF7B0FF9DF813302BBB204605A9FFF7BC
:10578000CDFFE0B9114BE8831B6828465C434FF41A
:105790007A73B4FBF3F203FB1244191B89B29942EA
:1057A00008BF0021BDF83430A983059A02939DF803
:1057B00030301146CDE900733346FFF7C1FE07B024
:1057C000F0BD2220FBE70220F9E700BF9C1B002070
:1057D000014B1868704700BF901B00200F4B10B59D
:1057E0001A689AB14FF47A71531E1342A0FB01015B
:1057F0000ED1B2FA82F2C2F11F04531CD243E04030
:1058000001FA03F3184321FA02F20243104610BDD5
:10581000002317F097FC0246F8E700BF9C1B00200E
:10582000C2072DE9F04704460BD5474A13880133D8
:105830009BB21380FFF710FE444B1B680BB1FFF7C0
:1058400051FEA3077ED519F068FC4FF0000905460C
:105850004E46FFF701FEC8463C4F3C680CB16369F9
:105860008BB100223A4B012E1A7003D119F0020FAE
:1058700018BF1E70002C61D0FFF734FE2846BDE82B
:10588000F04719F050BC23465A693AB91A79217980
:10589000914288BF1C469B68002BF5D1284619F021
:1058A00042FC2569DDB11AF026FCA269A0EB0209D1
:1058B0004FEAE9734D4578EB030311DA236913448A
:1058C000A361E368B4F80690013613B1204621685D
:1058D000984719F022FC0546FFF7BEFDBDE7A94633
:1058E00019F01BFC82462046FFF76EFE504619F069
:1058F0001AFC2369002BE4D0A38BB5EB090533B167
:10590000E28B13449BB2B3F57A7F0FD2E38319F095
:1059100004FC814629462046FFF7B8FDA3692269A9
:1059200048461344A36119F0FEFBCAE7A3F57A7356
:10593000E383A369013D013BA361E8E7022000F096
:105940007DF89BE7BDE8F08794280020981B002095
:10595000272900201FB500241C4B012118689A88B4
:105960000290D3F806009B7A00903E20ADF80C2000
:105970008DF80430FCF720FA02A88DF808408DF865
:105980000C40FDF71BF8694601208DF80040FCF73C
:10599000D1FF4FF0B04240F2FF31936923F47F739F
:1059A00023F0030393610A4B5961936A13F00803D0
:1059B000FBD113620120FCF7D7FF4FF48052054B57
:1059C000C3F880211A6004B010BD00BFDCA402003F
:1059D0000020005800E100E010B5044619F096FBE5
:1059E0004FF0B042936A1907FCD4136A116C5269E4
:1059F000520604D4CA1A032A01D899420ED1E21AD7
:105A0000022A98BFDC1CB4F1FF3F38BF013C4FF0C5
:105A1000B0431C649A6942F040029A6119F07AFB23
:105A2000054A13783BB14FF0B041CB6B43F0020312
:105A3000CB630023137010BDE70C0020820700F039
:105A400001030AD50121084A43F0400311704FF0C9
:105A5000B041CA6B22F00302CA634FF0B0418A69B9
:105A600022EA03038B617047E70C0020830742BFE3
:105A70004022014B5A6170470010005810B519F0D0
:105A80004CFB4FF0B04304465B695A06074A03F0EB
:105A9000010003F0510348BF40F002005361FFF7DB
:105AA000BFFE2046BDE8104019F03DBB0020005865
:105AB0000A4B10B5D3F8403203F00303013B012B2E
:105AC0000BD819F023FB044601210220FFF7A4FAAA
:105AD0002046BDE8104019F01DBB10BD00800050ED
